:020000040800F2
:100000003804002001010008C90500087903000830
:10001000C50500083D020008A50700080000000013
:10002000000000000000000000000000350600088D
:100030004102000800000000CB050008210700086D
:100040001B0100081B0100081B0100081B01000820
:100050001B0100081B0100081B0100081B01000810
:100060001B0100081B0100081B0100081B01000800
:100070001B0100081B0100081B0100081B010008F0
:100080001B0100081B0100081B0100081B010008E0
:100090001B0100081B0100081B0100081B010008D0
:1000A0001B0100081B0100081B0100081B010008C0
:1000B0001B0100081B0100081B0100081B010008B0
:1000C0001B0100081B0100081B0100081B010008A0
:1000D0001B0100081B0100081B0100081B01000890
:1000E0001B0100081B0100081B010008DFF80CD0F1
:1000F00000F018F800480047F9070008380400200D
:100100000648804706480047FEE7FEE7FEE7FEE7B1
:10011000FEE7FEE7FEE7FEE7FEE7FEE7450700082D
:10012000ED000008064C074D06E0E06840F00103D2
:1001300094E8070098471034AC42F6D3FFF7DAFF93
:100140007C0800089C0800082DE9F04105460E4691
:1001500014460CB9BDE8F081C5F3072705F0FF0888
:1001600000F0CAF9A02000F095F900F007FA38462F
:1001700000F090F900F002FA404600F08BF900F030
:10018000FDF900F0B9F9A12000F084F900F0F6F9CA
:10019000601E84B207E0012000F04EF93070761C3A
:1001A0006D1C601E84B2002CF5D1002000F044F9D3
:1001B000307000F0C1F900BFCCE72DE9F84F0446DC
:1001C0000E4617460FB9BDE8F88F3D4632E004F001
:1001D0003F0ACAF1400AAA4501DBA84600E0D04622
:1001E000A5EB080085B2C146C4F3072BE0B200902E
:1001F00000F082F9A02000F04DF900F0BFF9584658
:1002000000F048F900F0BAF9009800F043F900F066
:10021000B5F905E0307800F03DF900F0AFF9761C53
:10022000B8F10000A8F101011FFA81F8F2D100F045
:1002300083F94C44002DCAD100BFC4E700BFFEE7DC
:1002400070472DE9F04102460025002600200023DA
:100250000024002791F803C00CF00F0591F803C0AB
:100260000CF0100CBCF1000F03D091F802C04CEA66
:10027000050591F800C0BCF1000F31D014680020D2
:100280002BE04FF0010C0CFA00F3B1F800C00CEABF
:1002900003069E4220D183004FF00F0C0CFA03F7A7
:1002A000BC4305FA03FC4CEA040491F803C0BCF11A
:1002B000280F06D14FF0010C0CFA00FCC2F814C054
:1002C0000AE091F803C0BCF1480F05D14FF0010CD2
:1002D0000CFA00FCC2F810C0401C0828D1D31460EE
:1002E000B1F800C0BCF1FF0F34DD546800202EE0EF
:1002F00000F1080C4FF0010808FA0CF3B1F800C047
:100300000CEA03069E4221D183004FF00F0C0CFA39
:1003100003F7BC4305FA03FC4CEA040491F803C05C
:10032000BCF1280F05D100F1080C08FA0CF8C2F84E
:10033000148091F803C0BCF1480F07D100F1080CFC
:100340004FF0010808FA0CF8C2F81080401C082889
:10035000CED35460BDE8F0810246002093680B4084
:100360000BB1012000E000207047016170470AB125
:10037000016100E04161704700BFFEE710B5002257
:100380004FF480410D48FFF7F2FF00F041F90022E1
:100390004FF400410948FFF7EAFF00F025FA012277
:1003A00091030648FFF7E3FF00F01EFA00224FF426
:1003B00080410248FFF7DBFF10BD0000000C014048
:1003C00008B50121082000F001F94FF44040ADF8D4
:1003D000000014208DF8030001208DF8020069460A
:1003E0000448FFF72EFF4FF440410248FFF7BDFFDE
:1003F00008BD0000000C014010B500224FF4804100
:100400000C48FFF7B4FF00F003F90122D1030948BB
:10041000FFF7ADFF00F0E8F9012291030548FFF76F
:10042000A6FF00F0E1F900224FF480410148FFF7F8
:100430009EFF10BD000C014070B50546002400F081
:10044000D5F800261AE000224FF480411048FFF74B
:100450008EFF00F0C9F9012291030D48FFF787FFD5
:1004600000F0C2F96006040E4FF400410848FFF79F
:1004700073FF08B1601CC4B2701CC6B2082EE2DB68
:1004800015B9FFF7B9FF01E0FFF778FF204670BD0F
:10049000000C014070B5044600F0BAF800224FF499
:1004A00080411448FFF763FF002520E0E00928B1F0
:1004B0000122D1030F48FFF75AFF05E000224FF455
:1004C00000410C48FFF753FF6006040E00F08CF962
:1004D000012291030748FFF74AFF00F085F9002247
:1004E0004FF480410348FFF742FF681CC5B2082D56
:1004F000DCDB70BD000C014010B500F089F8012272
:10050000D1030C48FFF733FF012291030948FFF79D
:100510002EFF00F069F900224FF400410548FFF773
:1005200026FF00F061F900224FF480410148FFF7F7
:100530001EFF10BD000C014010B500224FF4004119
:100540000D48FFF714FF00F063F800224FF48041DC
:100550000948FFF70CFF00F047F901229103064814
:10056000FFF705FF00F040F90122D1030248FFF731
:10057000FEFE00F039F910BD000C014010B500F08E
:1005800035F80122D1030E48FFF7F1FE00F02CF9F7
:10059000012291030A48FFF7EAFE00F025F94FF423
:1005A00000410748FFF7D8FE08B1012400E000240D
:1005B00000224FF480410248FFF7D9FE204610BDCB
:1005C000000C014000BFFEE77047704729B1064AA2
:1005D00092690243044B9A6104E0034A92698243A0
:1005E000014B9A61704700000010024008B54FF4BB
:1005F0000040ADF8000001208DF8020048208DF881
:10060000030069460148FFF71CFE08BD000C0140CD
:1006100008B54FF40040ADF8000001208DF802004D
:1006200014208DF8030069460148FFF70AFE08BD53
:10063000000C0140704710B500F002F810BD00003A
:100640000CB50020019000903348006840F48030E1
:100650003149086000BF3048006800F40030009065
:100660000198401C0190009818B90198B0F5A06F4E
:10067000F1D12948006800F4003010B10120009049
:1006800001E0002000900098012843D12348006831
:1006900040F01000214908600846006820F003007F
:1006A00008600846006840F0020008601A48406888
:1006B000194948600846406848600846406840F468
:1006C000806048600846406820F47C104860084616
:1006D000406840F4E81048600846006840F08070C8
:1006E000086000BF0C48006800F000700028F9D0D6
:1006F0000948406820F00300074948600846406800
:1007000040F00200486000BF0348406800F00C0061
:100710000828F9D10CBD0000001002400020024062
:1007200010B506480068401C044908600448006889
:1007300010B103480068804710BD00002C00002065
:100740003000002010B51348006840F00100114946
:10075000086008464068104908400E49486008464D
:1007600000680E4908400B4908600846006820F4FC
:10077000802008600846406820F4FE0048604FF47E
:100780001F008860FFF757FF4FF0006004490860C2
:1007900010BD0000001002400000FFF8FFFFF6FE51
:1007A00008ED00E000BFFEE702E008C8121F08C124
:1007B000002AFAD170477047002001E001C1121FE2
:1007C000002AFBD170470021002200BF09E000226F
:1007D00001E0531C9AB241F658339A42F9DB4B1CA4
:1007E00099B28142F3DB7047002001E000BF401C5A
:1007F0003228FBD3704700006420FFF7E4FF00F0CD
:1008000019F83220FFF7DFFFFFF7DAFD142207495E
:100810003220FFF7D2FC08E0142205493220FFF70E
:1008200093FC4FF4FA70FFF7CEFFF5E700000020CD
:100830001400002010B50E484FF0E0214861481721
:100840000021002807DA0A07140E0A4A00F00F03F5
:100850001B1FD45403E00A07130E074A135400BFAA
:1008600000204FF0E02188610720086110BD0000E2
:100870003F19010018ED00E000E400E09C080008CA
:100880000000002034000000A8070008D00800087D
:100890003400002004040000B80700084141414131
:1008A00041414141414141414141414141410000BA
:1008B0003030303030303030300000000000000088
:1008C00000000000640000000000000000000000C4
:04000005080000ED02
:00000001FF
